{
  "transactions": [
    {
      "hash": "0x2d2ffe052fd30acb50384b9275a625894042c382bd49fbe155d3d5781676a972",
      "transactionType": "CALL",
      "contractName": "LinkToken",
      "contractAddress": "0x779877a7b0d9e8603169ddbd7836e478b4624789",
      "function": "transferAndCall(address,uint256,bytes)",
      "arguments": [
        "0x9DdfaCa8183c41ad55329BdeeD9F6A8d53168B1B",
        "3000000000000000000",
        "0x2d9202e0957933241196e53affd9651d5b37de4bbe2be5408aefa11a7d29cb56"
      ],
      "transaction": {
        "from": "0x2deef12fb942b0d535b25fa7b6febcca0d556fd1",
        "to": "0x779877a7b0d9e8603169ddbd7836e478b4624789",
        "gas": "0x14cbb",
        "value": "0x0",
        "input": "0x4000aea00000000000000000000000009ddfaca8183c41ad55329bdeed9f6a8d53168b1b00000000000000000000000000000000000000000000000029a2241af62c0000000000000000000000000000000000000000000000000000000000000000006000000000000000000000000000000000000000000000000000000000000000202d9202e0957933241196e53affd9651d5b37de4bbe2be5408aefa11a7d29cb56",
        "nonce": "0x2a",
        "chainId": "0xaa36a7"
      },
      "additionalContracts": [],
      "isFixedGasLimit": false
    }
  ],
  "receipts": [
    {
      "status": "0x1",
      "cumulativeGasUsed": "0xba5980",
      "logs": [
        {
          "address": "0x779877a7b0d9e8603169ddbd7836e478b4624789",
          "topics": [
            "0xddf252ad1be2c89b69c2b068fc378daa952ba7f163c4a11628f55a4df523b3ef",
            "0x0000000000000000000000002deef12fb942b0d535b25fa7b6febcca0d556fd1",
            "0x0000000000000000000000009ddfaca8183c41ad55329bdeed9f6a8d53168b1b"
          ],
          "data": "0x00000000000000000000000000000000000000000000000029a2241af62c0000",
          "blockHash": "0x6550e8bb4216d40f7bb9d9069ef896b1f8904c5ce2e34e0f2186ab42e00c5651",
          "blockNumber": "0x700bba",
          "transactionHash": "0x2d2ffe052fd30acb50384b9275a625894042c382bd49fbe155d3d5781676a972",
          "transactionIndex": "0x43",
          "logIndex": "0x6b",
          "removed": false
        },
        {
          "address": "0x779877a7b0d9e8603169ddbd7836e478b4624789",
          "topics": [
            "0xe19260aff97b920c7df27010903aeb9c8d2be5d310a2c67824cf3f15396e4c16",
            "0x0000000000000000000000002deef12fb942b0d535b25fa7b6febcca0d556fd1",
            "0x0000000000000000000000009ddfaca8183c41ad55329bdeed9f6a8d53168b1b"
          ],
          "data": "0x00000000000000000000000000000000000000000000000029a2241af62c0000000000000000000000000000000000000000000000000000000000000000004000000000000000000000000000000000000000000000000000000000000000202d9202e0957933241196e53affd9651d5b37de4bbe2be5408aefa11a7d29cb56",
          "blockHash": "0x6550e8bb4216d40f7bb9d9069ef896b1f8904c5ce2e34e0f2186ab42e00c5651",
          "blockNumber": "0x700bba",
          "transactionHash": "0x2d2ffe052fd30acb50384b9275a625894042c382bd49fbe155d3d5781676a972",
          "transactionIndex": "0x43",
          "logIndex": "0x6c",
          "removed": false
        },
        {
          "address": "0x9ddfaca8183c41ad55329bdeed9f6a8d53168b1b",
          "topics": [
            "0x1ced9348ff549fceab2ac57cd3a9de38edaaab274b725ee82c23e8fc8c4eec7a",
            "0x2d9202e0957933241196e53affd9651d5b37de4bbe2be5408aefa11a7d29cb56"
          ],
          "data": "0x00000000000000000000000000000000000000000000000029a2241af62c000000000000000000000000000000000000000000000000000053444835ec580000",
          "blockHash": "0x6550e8bb4216d40f7bb9d9069ef896b1f8904c5ce2e34e0f2186ab42e00c5651",
          "blockNumber": "0x700bba",
          "transactionHash": "0x2d2ffe052fd30acb50384b9275a625894042c382bd49fbe155d3d5781676a972",
          "transactionIndex": "0x43",
          "logIndex": "0x6d",
          "removed": false
        }
      ],
      "logsBloom": "0x00000004000000000000000000000000000000000020000000000000020000000000000000000000000000000000000000000000000000000000000000000000000000000000000000000008000000000000001000000000000020000020000008000004010000000000000000000000000000000000000000000010000040000000000000000000000000010000800000000020000000000000000000002000000000000000000000000000010000000000000000000100000004000000000000000012000000000000000000000000000000000000000100000000000000000010000000000000800000000000000000000000000000000000000000000000",
      "type": "0x2",
      "transactionHash": "0x2d2ffe052fd30acb50384b9275a625894042c382bd49fbe155d3d5781676a972",
      "transactionIndex": "0x43",
      "blockHash": "0x6550e8bb4216d40f7bb9d9069ef896b1f8904c5ce2e34e0f2186ab42e00c5651",
      "blockNumber": "0x700bba",
      "gasUsed": "0xf0e5",
      "effectiveGasPrice": "0x38b0d9fca",
      "from": "0x2deef12fb942b0d535b25fa7b6febcca0d556fd1",
      "to": "0x779877a7b0d9e8603169ddbd7836e478b4624789",
      "contractAddress": null
    }
  ],
  "libraries": [],
  "pending": [],
  "returns": {},
  "timestamp": 1735016750,
  "chain": 11155111,
  "commit": "26c72a3"
}